:1000000012C0FECFFDCFFCCFFBCFFACFF9CFF8CF98
:10001000F7CFF6CFF5CFF4CFF3CFF2CFF1CFF0CFCC
:10002000EFCFEECFEDCFF894EE27ECBBF1E0FBBFC6
:10003000EBBFE5BF8DE0A2E0BB27ED938A95E9F722
:1000400080E094E0A0E6ED930197E9F7EFE5EDBFDE
:10005000E4E0EEBFC0E6D1E000C0B89AA29AA69A4A
:10006000C098AA9AAE98A8EEB3E008D0C09AAA9811
:10007000AE9AA8EEB3E002D0F3CFFFCF109639F0DE
:10008000A89580ED97E00197F1F71197C9F70895CA
:00000001FF
