:080000000C9433000C94000085
:100008000C9400000C9400000C9400000C94000068
:100018000C9400000C9400000C9400000C94000058
:100028000C9400000C9400000C9400000C94000048
:100038000C9400000C9400000C9400000C94000038
:100048000C9400000C9400000C940000610080C027
:100058000200600254000200620256000000F89498
:10006800EE27ECBBF1E0FBBFEBBFE5BF8DE0A2E004
:10007800BB27ED938A95E9F780E098E0A0E6ED9339
:100088000197E9F7E8E5F0E085919591009761F02F
:10009800A591B59105901590BF01F00105900D92BD
:1000A8000197E1F7FB01F0CFEFE5EDBFE8E0EEBF28
:1000B800C0E6D2E00C94600001E010E020E030E0FF
:1000C800A0E182D049D02A93A0E039D0E1E0F0E065
:1000D800E217F30711F401E010E0EFE0F0E0E217B7
:1000E800F30711F40FEF1FEF200F311FA0E6B2E066
:1000F8005AD0A8ECB0E00E942201E4CFFFCFAA9327
:10010800E5B3EF70AE2FE881E07FEA2BE5BB8DE029
:100118008A95F1F7AA9A8DE08A95F1F7AA988DE069
:100128008A95F1F789C0AA93A881E9DFE881E29569
:10013800E883A881E4DF85E88A95F1F77DC0AA9372
:10014800E881F0E0EE59FD4FE081A981AE0FEBDFC9
:100158005980488022960895A2E0E5DFA3E0B0E048
:100168000E942201ACE0DFDFA1E0DDDFA3E0B0E028
:100178000E942201E0E04E2E5E2E0895AA93A881E7
:10018800AA3011F0571448F0E0E0EA934394A42D04
:10019800D6DFA881AA3009F44FC05394A89AA88141
:1001A800C2DFA89849C0BA93AA931A93A981BA81C1
:1001B800ED91A983BA831E2FE03019F0A12FDEDF5D
:1001C800F5CF188123960895AA93E4B3E06FE4BBB2
:1001D800A29AA09AA19AAA98A898A9987880E88142
:1001E800E058E0936402E881E054E0936502A4E1FA
:1001F800B0E00E942201A0E382DF88EC90E0019742
:10020800F1F7A0E37CDF88EC90E00197F1F7A0E339
:1002180076DF88EC90E00197F1F7A0E270DF88ECD8
:1002280090E00197F1F7A8E27EDFA4E07CDFA5E883
:100238007ADFA6E078DF90DF21960895109639F0EE
:10024800A89580ED97E00197F1F71197C9F7089500
:00000001FF
