:100000000C9439000C9400000C9400000C946600D1
:100010000C9400000C9400000C9400000C94000060
:100020000C9400000C9400000C9400000C94000050
:100030000C9400000C9400000C9400000C94000040
:100040000C9400000C9400000C9400000C94000030
:100050000C940000FEFDFBF73738392F3435362A73
:100060003132332D63303D2B80C0020060026800C6
:100070000000F894EE27ECBBF1E0FBBFEBBFE5BF5F
:100080008DE0A2E0BB27ED938A95E9F780E098E048
:10009000A0E6ED930197E9F7EAE6F0E08591959106
:1000A000009761F0A591B59105901590BF01F00101
:1000B00005900D920197E1F7FB01F0CFEFE5EDBF61
:1000C000E8E0EEBFC0E6D2E00C9489000A921A92F2
:1000D000FA926A937A938A939A93AA93BA93EA9339
:1000E000FA93EFB7EA931A9325D01E2FA12FA1D030
:1000F000E0EFE2BB1991E991EFBFF991E991B99174
:10010000A9919991899179916991F99019900990A2
:100110001895A0E1A2D0EFE0E1BBE0EFE2BBEBB7C6
:10012000E062EBBFE0E0E5BFE4BFE0E2EABF789465
:10013000FFCFFFCF0E94760100E010E02FEF3FEFEE
:1001400000E010E00430E0E01E0784F5F801EC5A0E
:10015000FF4F049002BA849902C020E030E08599F4
:1001600002C021E030E0869902C022E030E08799A9
:1001700002C023E030E0EFEFFFEFE217F30799F062
:10018000849BFECF859BFECF869BFECF879BFECFB9
:10019000F801A8E5B0E00E947101EA0FFB1FE20F31
:1001A000F31FE49103C00F5F1F4FCCCF0E947B0170
:1001B00024960895AA93EBB3EF70AE2FE881E07F09
:1001C000EA2BEBBB8DE08A95F1F7DA9A8DE08A9500
:1001D000F1F7DA988DE08A95F1F777C0AA93A881B4
:1001E000E9DFE881E295E883A881E4DF85E88A9584
:1001F000F1F76BC0AA93E881F0E0E05AFD4FE0818F
:10020000A981AE0FEBDF5980488022960895A2E0C5
:10021000E5DFA3E0B0E00E946701ACE0DFDFA1E032
:10022000DDDFA3E0B0E00E946701E0E04E2E5E2E2D
:100230000895AA93A881AA3011F0571440F0E0E085
:10024000EA934394A42DD6DFA881AA30F1F1539408
:10025000D89AA881C3DFD89838C0AA93EAB3E06FD0
:10026000EABBD29AD09AD19ADA98D898D99878805D
:10027000E881E058E0936202E881E054E093630291
:10028000A4E1B0E00E946701A0E394DF88EC90E075
:100290000197F1F7A0E38EDF88EC90E00197F1F78A
:1002A000A0E388DF88EC90E00197F1F7A0E282DF1D
:1002B00088EC90E00197F1F7A8E290DFA4E08EDFF0
:1002C000A5E88CDFA6E08ADFA2DF219608951096CC
:1002D00039F0A89580ED97E00197F1F71197C9F7EC
:1002E0000895EE0FFF1FEE0FFF1F08953A932A9314
:1002F0001A930A9308953B812A81198108810895F0
:00000001FF
