:020000000C945E
:100002003C000C9400000C9400000C9400000C9432
:1000120000000C9400000C9400000C9400000C945E
:1000220000000C9400000C9400000C9400000C944E
:1000320000000C9400000C9400000C9400000C943E
:1000420000000C9400000C9400000C9400000C942E
:1000520000004156523A2025642000002D4E414EA8
:10006200000001002D4E414E00494E4600000100A5
:10007200600264000000F894EE27ECBBF1E0FBBFE5
:10008200EBBFE5BF8DE0A2E0BB27ED938A95E9F7D0
:1000920080E098E0A0E6ED930197E9F7E0E7F0E071
:1000A20085919591009761F0A591B5910590159074
:1000B200BF01F00105900D920197E1F7FB01F0CF2E
:1000C200EFE5EDBFE8E0EEBFC0E6D2E00C947200CF
:1000D200E8E1EAB9E6E0E0BDE0E0E0BDE3E3E9B98A
:1000E200089500E010E0F4DFE4E5F0E0FA93EA932B
:1000F200F8010E946E080E94E00884E00E94EE046B
:100102002696A8EEB3E00E94A9060F5F1F4FECCF20
:10011200FFCFAA935D9BFECFE881ECB921960895AB
:10012200BA93AA93AA81F5DFA881B981ED91FD91D5
:100132003196FE93EE9323960895BA93AA93249749
:10014200E0E0E883E983E0E8EA83EFE3EB830E94FF
:10015200FD08EE85FF85EF3FAFEFFA0749F4E8852A
:10016200F985FA93EA93AEE5B0E00E94130544C123
:10017200EF3FAFE7FA0749F4E885F985FA93EA9386
:10018200AFE5B0E00E94130537C1AB85A73010F090
:10019200E6E0EB871B85E12F1150E03079F0AC816E
:1001A200BD818E819F81E0E0F0E060E271E40E9417
:1001B200A907EC83FD836E837F83EDCFEC85FD85FC
:1001C2006E857F850E94F70881F430E0AC81BD81A5
:1001D2008E819F81E0E0F0E060E271E40E94A90775
:1001E200EC83FD836E837F837DC03B85EC81FD8143
:1001F2006E817F81AC85BD858E859F850E943C087E
:1002020009F008F426C0AC81BD818E819F81E0E0B7
:10021200F0E060E271E40E94A907EC83FD836E8343
:100222007F83EC81FD816E817F81AC85BD858E856A
:100232009F850E943C0860F0EDECFCEC6CEC7DE3E9
:100242000E94A907EC87FD876E877F873F5FE9CF12
:1002520025C0EC81FD816E817F81AC85BD858E8557
:100262009F850E943C0860F4E0E0F0E060E271E407
:100272000E94A907EC87FD876E877F873150E9CFFF
:10028200AC81BD818E819F81E0E0F0E060E271E4AB
:100292000E94A907EC83FD836E837F83EC85FD8535
:1002A2006E857F85A0E0B0E080E09FE30E94590761
:1002B200EC87FD876E877F87EC81FD816E817F8170
:1002C200AC85BD858E859F850E943C0858F0EDEC7B
:1002D200FCEC6CEC7DE30E94A907EC87FD876E873E
:1002E2007F873F5F10E0EB85E11708F44FC0AC81D8
:1002F200BD818E819F81EDECFCEC6CEC7DE30E9474
:10030200A907A0E0B0E080E09FE30E945907DF0167
:10031200CB010E946A05EC83FD836E837F83AC85EB
:10032200BD858E859F850E94F7070E94E6060E2FE7
:10033200A885B9851196A887B9871197E05DEC93D6
:10034200E02FFF27662777270E941F07AC81BD8118
:100352008E819F810E94A907AC85BD858E859F8570
:100362000E94EA080E945207EC87FD876E877F870A
:10037200E12F1F5FE03009F0B6CFA885B98511964D
:10038200A887B9871197EEE2EC93ADCFE885F9859E
:100392003196E887F9873197AA85A08330302CF40B
:1003A2003195A885B985EDE203C0A885B985EBE250
:1003B200EC93E885F9853196E887F9873196E887E5
:1003C200F9873197BF01A32FEAE00E948108E05D1F
:1003D200DB01EC93E885F9853196E887F987319757
:1003E200BF01A32FEAE00E94AB08E05DDB01EC93C2
:1003F200A885B985E0E0EC930E940409609608950F
:10040200BA93AA93EF9761970E94FB0810E0FE014E
:10041200E85AFF4F0190F081E02DE887F987FE014D
:10042200EA5AFF4F0190F081E02DEE83FF83AE8107
:10043200BF81E0E0F0E0ED93FC93DE01A45ABF4FF0
:10044200ED91FD913196FE93EE933197E4912E2F2B
:10045200E03009F4B9C2E12FE03059F4253211F449
:1004620011E006C02A93AF81B885E985FA8509951E
:10047200AAC2E130E1F4253239F42A93AF81B8857A
:10048200E985FA8509959EC212E0E0E0ED8B00E075
:100492002D3211F401E097C22B3219F4EBE2ED8B0D
:1004A20092C2203219F4E0E2ED8B8DC202C0E2303A
:1004B20039F450E013E0203311F4006884C202C022
:1004C200E33091F4203310F02A3308F007C0AAE099
:1004D2005A9F502DE22FE0535E0F75C240E02E323C
:1004E20011F414E070C20FC0E43099F4203310F01C
:1004F2002A3308F008C00062AAE04A9F402DE22F8A
:10050200E0534E0F60C22C3619F4026015E05BC254
:1005120003C0E53009F057C2E22FE336A1F4FE0131
:10052200E65AFF4F0190F081E02D3497DE01A65A82
:10053200BF4FED93FC93A481AA93AF81B885E9855F
:10054200FA8509953FC2E53411F0E53609F403C096
:10055200E63609F068C0FE017696EE87FF87DE0177
:10056200A65ABF4F0D90BC91A02D0E94CB08EA87DE
:10057200FB876C877D87FE01E65AFF4F0190F08171
:10058200E02D3497DE01A65ABF4FED93FC93AD8563
:10059200AA2332F0AD89AB3279F0A032B9F01EC095
:1005A200EA85FB856C857D850E94B306EA87FB8719
:1005B2006C877D87EDE2ED8B07FF08C0ED89EA933A
:1005C200AF81B885E985FA85099508C0EE85FF8572
:1005D2003196EE87FF873197AD89A08305FF46E00C
:1005E200263661F4EA85FB856C857D850E94E008EC
:1005F2004A93AB89BC890E9481050BC0EA85FB85C1
:100602006C857D850E94E0084A932A93AC89BD8956
:1006120094DDFE017696EE87FF87AE85BF850E9448
:1006220020051E2F45C0E337E9F4FE01E65AFF4FCD
:100632000190F081E02D3497DE01A65ABF4FED9371
:10064200FC93DE01A65ABF4F0D90BC91A02D1496CB
:100652000E94C708EE87FF87AE85BF850E942005EE
:100662001E2F1FC0E03749F5FE01E65AFF4F0190E9
:10067200F081E02D3497DE01A65ABF4FED93FC9333
:10068200DE01A65ABF4F0D90BC91A02D14960E9478
:10069200C708EE87FF87AE85BF850E942C051E2FF7
:1006A20008600F77403011F0411708F001C0142F95
:1006B20040E0E0E0EC8B30E0A9C0E43611F0E9362E
:1006C20011F4046002C0E537C1F4EAE0EC8B01FFEB
:1006D2000AC0E0E0FAEC6AE97BE3E88BF98B6A8B0B
:1006E2007B8B1AE028C0E0E1F7E260E070E0E88B83
:1006F200F98B6A8B7B8B15E01EC0E83511F408601C
:1007020003C0E83709F05EC1E0E1EC8B01FF0AC0EB
:10071200E0E0F0E060E070E1E88BF98B6A8B7B8BC4
:1007220018E009C0E0E0F0E160E070E0E88BF98BEE
:100732006A8B7B8B14E0403011F00F7701C041E0EF
:1007420001FF16C0FE01E65AFF4F0190F081E02D35
:100752003497DE01A65ABF4FED93FC93DE01A65AF1
:10076200BF4F0D90BC91A02D14960E94CB0831C0B2
:1007720002FF18C0FE01E65AFF4F0190F081E02D02
:100782003497DE01A65ABF4FED93FC93DE01A65AC1
:10079200BF4F0D90BC91A02D14960E94C7080E94D5
:1007A2006E0817C0FE01E65AFF4F0190F081E02D5E
:1007B2003497DE01A65ABF4FED93FC93DE01A65A91
:1007C200BF4F0D90BC91A02D14960E94C7086627BA
:1007D2007727EA87FB876C877D8702FF16C0AD8586
:1007E200AA2362F4EA85FB856C857D850E946008F8
:1007F200EA87FB876C877D87EDE2ED8BED89E03040
:1008020019F01F5F4F5F01C00B7F342F00FD18C02E
:10081200151710F4351708F013C007FF08C002FFC0
:1008220004C00B7F2D89115001C020E301C020E2DA
:100832002A93AF81B885E985FA8509955150E8CFA9
:10084200141720F5006102FF15C00B7FED89EA93B2
:10085200DE01A95ABF4F0D90BC91A02DFE01E75AAF
:10086200FF4F0190F081E02D0995503009F0515071
:1008720011504150E0E3EA93AF81B885E985FA85EA
:100882000995503009F051504150DACF312FEC899F
:10089200E030D9F43030C1F003FF06C0EE85FF85A9
:1008A2002591EE87FF8705C0AE85BF852D91AE8766
:1008B200BF872A93AF81B885E985FA8509955030BB
:1008C20009F051503150E6CF70C0E889F9896A8940
:1008D2007B89AA85BB858C859D850E9486082E2FE3
:1008E2002A3030F003FF02C0295C01C0295A01C03E
:1008F200205D04FD30C0213360F4A889B9898A895A
:100902009B89A130E0E0BE07E0E08E07E0E09E07B1
:1009120009F40BC0431740F4531710F000FF01C055
:1009220023C020E207FF17C020E3006102FF13C0CB
:100932000B7FED89EA93DE01A95ABF4F0D90BC915E
:10094200A02DFE01E75AFF4F0190F081E02D09959D
:10095200503009F051502A93AF81B885E985FA8564
:100962000995503009F051503150E889F9896A8966
:100972007B89AA85BB858C859D850E94B708EA87FD
:10098200FB876C877D87EC89A889B9898A899B89CD
:10099200FF27662777270E948608E88BF98B6A8BE8
:1009A2007B8B0E94F70809F090CF00FF0BC05030FC
:1009B20049F05150E0E2EA93AF81B885E985FA85C2
:1009C2000995F5CF10E039CDAE81BF810E94C708ED
:1009D2000E940209EF966F960895FF92F82E2697CD
:1009E2001A930A93DE0114960E945C088D01E0E0DE
:1009F200EC83ED83EE83EF83DE0118960E945C08A0
:100A02000E94C708FA93EA931A930A93E1E9F0E085
:100A1200FA93EA93DE011896F3DC1981088128968D
:100A2200FF900895BA93AA93E991F991A991B99186
:100A3200CD0105900D920020E1F7FC010895BA93D3
:100A4200AA93A991B991EE27FF276D91662311F020
:100A52003196FBCF0895BA93AA93AA27BB27E991AF
:100A6200F9910590002011F01196FBCFFD01089538
:100A72000E94E5087B816A81F981E88177FB770F23
:100A820067FD7160972F9E5781F078F0983190F44E
:100A9200AA27BB27882708948795B795A7959A9583
:100AA200D1F7EA23FB23682305C0E8947727EE27D2
:100AB200FF2766276F77769508F4606877F9A99122
:100AC200B99189919991EA17FB076807790797FB12
:100AD20008950E94E5080E94D6080E9439050E94E6
:100AE200DB0819F40E94D10809C0E6F70E94D10878
:100AF200A0E0B0E080E89FE30E94520724960895A8
:100B0200BA93AA932497E0E0E883E983EA83EFE3C8
:100B1200EB831A930A93EB85FC85EF3FAFEFFA075D
:100B220049F4EE81FF81FA93EA93A6E6B0E00E94CF
:100B320013050AC1EF3FAFE7FA0749F4EE81FF81DF
:100B4200FA93EA93A7E6B0E00E941305FDC0AC85D4
:100B5200AA2392F4E985FA856B857C850E94B30607
:100B6200E987FA876B877C87AE81BF811196AE8356
:100B7200BF831197EDE2EC93A885A73010F0E6E071
:100B8200E8871885E12F1150E03079F0AA81BB8106
:100B92008C819D81EDECFCEC6CEC7DE30E94A9075D
:100BA200EA83FB836C837D83EDCFEA81FB816C81D9
:100BB2007D81A985BA858B859C850E945907E98725
:100BC200FA876B877C8710E0E0E0F0E060E87FE383
:100BD200EA83FB836C837D83EA81FB816C817D8167
:100BE200A985BA858B859C850E943C08D8F0AA818C
:100BF200BB818C819D81E0E0F0E060E271E40E94C3
:100C0200A907EA83FB836C837D831F5F173248F059
:100C1200EE81FF81FA93EA93ABE6B0E00E941305FE
:100C220093C0DACF103049F4AE81BF811196AE8302
:100C3200BF831197E0E3EC9347C0E12F1150E030FE
:100C420009F442C0AA81BB818C819D81EDECFCEC50
:100C52006CEC7DE30E94A907A0E0B0E080E09FE396
:100C62000E945907DF01CB010E946A05EA83FB83D8
:100C72006C837D83A985BA858B859C850E94F70745
:100C82000E94E6060E2FAE81BF811196AE83BF830E
:100C92001197E05DEC93E02FF0E0AA81BB818C819B
:100CA2009D810E946E080E941F070E94A907A985C4
:100CB200BA858B859C850E94EA080E945207E987C3
:100CC200FA876B877C87B9CFE885E030C9F1AE81BE
:100CD200BF811196AE83BF831197EEE2EC93E88554
:100CE200E150E887EF5F61F1A985BA858B859C8524
:100CF200E0E0F0E060E271E40E94A907E987FA8788
:100D02006B877C870E94E6060E2FAE81BF8111960B
:100D1200AE83BF831197E05DEC93E02FF0E0A985ED
:100D2200BA858B859C850E946E080E941F070E94CF
:100D3200EA080E945207E987FA876B877C87CFCF40
:100D4200AE81BF81E0E0EC93198108812D96089570
:100D5200109639F0A89580ED97E00197F1F7119779
:100D6200C9F7089530976040704009F070580895AF
:100D7200552342F4503811F4E0FF04C03196691F44
:100D8200791F6BF050E8572711F45F93CFC05F3F94
:100D920031F0660F000C57956795752F08955F9394
:100DA20000200AF0CFC0C8C050E8192E1522880FC3
:100DB200991F9527550F879550E8072E0522660F34
:100DC200771F7527550F67950895689401C0E894B9
:100DD2005F93F2DF703818F07F3F08F4A7C056E146
:100DE200571BAAF4519558300EF4593030F0EFEFFA
:100DF200FFEF6FEF7FE777F91AC077275523B9F036
:100E0200EE0FFF1F661F771F5A95D1F710C0772785
:100E1200583028F0EF2FF62F672F5850F9CF55236F
:100E220031F076956795F795E7955A95D1F70020B9
:100E32000AF445D15F910895689401C0E89430970F
:100E420060407040B1F0002426F0772312F4009441
:100E520036D1172E7EE1112032F07A95EE0FFF1F68
:100E6200661F111CF9CFEF2FF62F612D5F938ADFDA
:100E72005F9108954F93AF01FD01DA01AB01BC010F
:100E8200CA01402D012C142E4F910895EA0FFB1F29
:100E9200681F0895E095F0956095EF5FFF4F6F4FE3
:100EA20008955F9381DF903871F150E8152604C0F0
:100EB2005F937ADF903839F1703821F1572F591B3F
:100EC2002BF112F4D7DFFACF583118F0AA27BB273B
:100ED2008827583028F0AB2FB82F88275850F9CFE1
:100EE200552329F08695B795A7955A95D9F7502D90
:100EF200512572F0CBDF38F46795F795E795739536
:100F020013F420C0B7DF3EDF5F910895D8F7FBCF1F
:100F1200EA1BFB0B680B51F010F40094BBDF662355
:100F220092F3EE0FFF1F661F7A95CBF7EE27FF278E
:100F3200662777275F910895EFEFFFEF6FE77FEF67
:100F42005F910895EFEFFFEF6FE77FE75F910895FD
:100F52005F932ADF703851F3903841F301240894EB
:100F6200791F23F41CF300203AF3ECCF0F921F9366
:100F72002F933F934F93112722279927689FA00110
:100F82008F9F302D410D591F6B9F300D411D591FF1
:100F92008E9F27D0BF9F25D06A9F23D0BE9F1DD092
:100FA200AF9F1BD0AE9F110D291F391F491F591F1B
:100FB200E32FF42F652F522F4F913F912F911F91C5
:100FC2000F9066232AF0550FEE1FFF1F661F02C007
:100FD20073954BF2CDDE5F910895100D211D391FDF
:100FE20002C0200D311D491F591F08955F93DCDE99
:100FF200703821F411200AF49FCFA4CF903809F45D
:1010020095CF01240894970B1BF4D4F30020F3CF5F
:10101200792F1F932F933F934F9311241127222748
:1010220033274427552790E2AE17BF0786074107AB
:1010320030F0AE1BBF0B860B410B089401C08894A5
:10104200551F221F331F111CAA1FBB1F881F441FBD
:101052009A9551F7F901612D4F913F912F911F916F
:10106200662332F0550FEE1FFF1F661F7A9543F27B
:101072007FDE5F91089599239AF0772342F09717C4
:1010820048F029F4AE17BF07860720F031F0989494
:1010920088940895989408940895189488940895CB
:1010A2007723C2F7971798F3A9F7EA17FB076807A0
:1010B20088F399F3ECCF0024AF0DB01D0895F0959D
:1010C20060957095E195FF4F6F4F7F4F0895FE2F0A
:1010D200FF0FFF0B6F2F7F2F08956F2F660F660B89
:1010E200762F0895002498E0AA0F001C0E1A10F41F
:1010F2000E0E01C0A1609A95B9F7EA2FA02D0895AE
:1011020039D0F0DF0EF4E19508953F934F935F934A
:10111200002411244427552730E2AA0FBB1F881F41
:10112200991F001C111C441F551F0E1A1F0A460B43
:10113200570B28F40E0E1F1E461F571F01C0A16039
:101142003A9559F7FD01BC01D001CA015F914F9157
:101152003F910895E894A7FF02C0A1956894E7FD26
:10116200E195C0DFEA2F0EF4E1950895CEDFFD018F
:10117200BC010895E894E7FF02C0E1956894A7FFD7
:1011820004C0A19500F8039400FA0895ED91FC9132
:1011920011970895ED91FD916D917C9113970895AA
:1011A200E881F9816A817B810895A881B9818A8168
:1011B2009B810895E883F9836A837B8308957A93F8
:1011C2006A93FA93EA9308959A938A93BA93AA93A5
:1011D2000895182E862F612D192E972F712D1B2EF3
:1011E200BF2FF12D1A2EAE2FE12D089530976040BA
:1011F200704008955A934A933A932A931A930A9302
:1012020008955D814C813B812A811981088108956D
:00000001FF
