:080000000C942A000C9400008E
:100008000C9400000C9400000C9400000C94000068
:100018000C9400000C9400000C9400000C94000058
:100028000C9400000C9400000C9400000C94000048
:100038000C9400000C9400000C9400000C94000038
:100048000C9400000C9400000C940000F894EE2727
:10005800ECBBF1E0FBBFEBBFE5BF8DE0A2E0BB2747
:10006800ED938A95E9F780E098E0A0E6ED93019793
:10007800E9F7EFE5EDBFE8E0EEBFC0E6D2E00C94AB
:10008800450000E010E0EFEFE4BBE1BBE0E0E5BBDA
:10009800E2BBE0E4E7B9E7E9E6B9A0E007D08F0101
:1000A80005BBE12FF070E2BBF8CFFFCFAA93E7B111
:1000B800AE2FE881E064EA2BE7B988E28A95F1F788
:1000C800369A349BFECF349AE4B1F5B1219608955F
:00000001FF
