:0C00000012C0FECFFDCFFCCFFBCFFACF2B
:10000C00F9CFF8CFF7CFF6CFF5CFF4CFF3CFF2CFC0
:10001C00F1CFF0CFEFCFEECFEDCFF894EE27ECBBD6
:10002C00F1E0FBBFEBBFE5BF8DE0A2E0BB27ED939A
:10003C008A95E9F780E094E0A0E6ED930197E9F763
:10004C00EFE5EDBFE4E0EEBFC0E6D1E000C002E3B7
:10005C0010E022E330E044E650E0A098A198B89A72
:10006C00989904C00A35E0E01E070CF002C00F5F3F
:10007C001F4F999904C00B30E0E01E070CF402C02E
:10008C0001501040FA01E01BF10B9F01C09AD801FE
:10009C0005D0C098D90102D0E3CFFFCF109639F02C
:1000AC00A89580ED97E00197F1F71197C9F708959E
:00000001FF
