:0A0000000C942A000C9400000C94EC
:10000A0000000C9400000C9400000C9400000C9466
:10001A0000000C9400000C9400000C9400000C9456
:10002A0000000C9400000C9400000C9400000C9446
:10003A0000000C9400000C9400000C9400000C9436
:10004A0000000C9400000C940000F894EE27ECBB1E
:10005A00F1E0FBBFEBBFE5BF8DE0A2E0BB27ED936C
:10006A008A95E9F780E098E0A0E6ED930197E9F731
:10007A00EFE5EDBFE8E0EEBFC0E6D2E00C94450044
:10008A00EFEFE4BBE1BBE0E0E5BBE2BBE0E4E7B9EC
:10009A00E3E9E6B9E6B1E065E6B9349BFECFE4B13F
:1000AA00E2BBE4B1F5B1EF2FF0E0E5BBF3CFFFCF50
:00000001FF
