:060000000C942A000C9490
:1000060045000C9400000C9400000C9400000C9425
:1000160000000C9400000C9400000C9400000C945A
:1000260000000C9400000C9400000C9400000C944A
:1000360000000C9400000C9400000C9400000C943A
:1000460000000C9400000C9400000C940000F8943E
:10005600EE27ECBBF1E0FBBFEBBFE5BF8DE0A2E016
:10006600BB27ED938A95E9F780E098E0A0E6ED934B
:100076000197E9F7EFE5EDBFE8E0EEBFC0E6D2E0B5
:100086000C944B00D89B02C0D89801C0D89A1895FA
:10009600D09AE0E4EBBFE0E0E5BF7894FFCFFFCF76
:00000001FF
